{
  "_format": "hh-sol-artifact-1",
  "contractName": "DiplomaRegistry",
  "sourceName": "contracts/DiplomaRegistry.sol",
  "abi": [
    {
      "inputs": [],
      "stateMutability": "nonpayable",
      "type": "constructor"
    },
    {
      "inputs": [
        {
          "internalType": "address",
          "name": "student",
          "type": "address"
        },
        {
          "internalType": "string",
          "name": "name",
          "type": "string"
        },
        {
          "internalType": "string",
          "name": "title",
          "type": "string"
        },
        {
          "internalType": "string",
          "name": "institution",
          "type": "string"
        },
        {
          "internalType": "uint256",
          "name": "year",
          "type": "uint256"
        }
      ],
      "name": "addDiploma",
      "outputs": [],
      "stateMutability": "nonpayable",
      "type": "function"
    },
    {
      "inputs": [],
      "name": "admin",
      "outputs": [
        {
          "internalType": "address",
          "name": "",
          "type": "address"
        }
      ],
      "stateMutability": "view",
      "type": "function"
    },
    {
      "inputs": [
        {
          "internalType": "address",
          "name": "student",
          "type": "address"
        },
        {
          "internalType": "uint256",
          "name": "index",
          "type": "uint256"
        }
      ],
      "name": "deleteDiploma",
      "outputs": [],
      "stateMutability": "nonpayable",
      "type": "function"
    },
    {
      "inputs": [
        {
          "internalType": "address",
          "name": "student",
          "type": "address"
        }
      ],
      "name": "getDiplomas",
      "outputs": [
        {
          "components": [
            {
              "internalType": "string",
              "name": "studentName",
              "type": "string"
            },
            {
              "internalType": "string",
              "name": "diplomaTitle",
              "type": "string"
            },
            {
              "internalType": "string",
              "name": "institution",
              "type": "string"
            },
            {
              "internalType": "uint256",
              "name": "year",
              "type": "uint256"
            }
          ],
          "internalType": "struct DiplomaRegistry.Diploma[]",
          "name": "",
          "type": "tuple[]"
        }
      ],
      "stateMutability": "view",
      "type": "function"
    },
    {
      "inputs": [
        {
          "internalType": "address",
          "name": "student",
          "type": "address"
        },
        {
          "internalType": "uint256",
          "name": "index",
          "type": "uint256"
        },
        {
          "internalType": "string",
          "name": "name",
          "type": "string"
        },
        {
          "internalType": "string",
          "name": "title",
          "type": "string"
        },
        {
          "internalType": "string",
          "name": "institution",
          "type": "string"
        },
        {
          "internalType": "uint256",
          "name": "year",
          "type": "uint256"
        }
      ],
      "name": "updateDiploma",
      "outputs": [],
      "stateMutability": "nonpayable",
      "type": "function"
    }
  ],
  "bytecode": "0x608060405234801561001057600080fd5b50336000806101000a81548173ffffffffffffffffffffffffffffffffffffffff021916908373ffffffffffffffffffffffffffffffffffffffff1602179055506116e3806100606000396000f3fe608060405234801561001057600080fd5b50600436106100575760003560e01c8063243d1ec81461005c578063313ec2521461008c578063c39be06c146100a8578063e4462022146100c4578063f851a440146100e0575b600080fd5b61007660048036038101906100719190610adf565b6100fe565b6040516100839190610ce8565b60405180910390f35b6100a660048036038101906100a19190610e6b565b61035c565b005b6100c260048036038101906100bd9190610f3a565b6104c8565b005b6100de60048036038101906100d99190610f7a565b610803565b005b6100e86109ec565b6040516100f5919061106a565b60405180910390f35b6060600160008373ffffffffffffffffffffffffffffffffffffffff1673ffffffffffffffffffffffffffffffffffffffff168152602001908152602001600020805480602002602001604051908101604052809291908181526020016000905b828210156103515783829060005260206000209060040201604051806080016040529081600082018054610192906110b4565b80601f01602080910402602001604051908101604052809291908181526020018280546101be906110b4565b801561020b5780601f106101e05761010080835404028352916020019161020b565b820191906000526020600020905b8154815290600101906020018083116101ee57829003601f168201915b50505050508152602001600182018054610224906110b4565b80601f0160208091040260200160405190810160405280929190818152602001828054610250906110b4565b801561029d5780601f106102725761010080835404028352916020019161029d565b820191906000526020600020905b81548152906001019060200180831161028057829003601f168201915b505050505081526020016002820180546102b6906110b4565b80601f01602080910402602001604051908101604052809291908181526020018280546102e2906110b4565b801561032f5780601f106103045761010080835404028352916020019161032f565b820191906000526020600020905b81548152906001019060200180831161031257829003601f168201915b505050505081526020016003820154815250508152602001906001019061015f565b505050509050919050565b60008054906101000a900473ffffffffffffffffffffffffffffffffffffffff1673ffffffffffffffffffffffffffffffffffffffff163373ffffffffffffffffffffffffffffffffffffffff16146103ea576040517f08c379a00000000000000000000000000000000000000000000000000000000081526004016103e190611168565b60405180910390fd5b600160008673ffffffffffffffffffffffffffffffffffffffff1673ffffffffffffffffffffffffffffffffffffffff168152602001908152602001600020604051806080016040528086815260200185815260200184815260200183815250908060018154018082558091505060019003906000526020600020906004020160009091909190915060008201518160000190816104889190611334565b50602082015181600101908161049e9190611334565b5060408201518160020190816104b49190611334565b506060820151816003015550505050505050565b60008054906101000a900473ffffffffffffffffffffffffffffffffffffffff1673ffffffffffffffffffffffffffffffffffffffff163373ffffffffffffffffffffffffffffffffffffffff1614610556576040517f08c379a000000000000000000000000000000000000000000000000000000000815260040161054d90611168565b60405180910390fd5b600160008373ffffffffffffffffffffffffffffffffffffffff1673ffffffffffffffffffffffffffffffffffffffff1681526020019081526020016000208054905081106105da576040517f08c379a00000000000000000000000000000000000000000000000000000000081526004016105d190611452565b60405180910390fd5b60008190505b60018060008573ffffffffffffffffffffffffffffffffffffffff1673ffffffffffffffffffffffffffffffffffffffff1681526020019081526020016000208054905061062e91906114a1565b81101561075e57600160008473ffffffffffffffffffffffffffffffffffffffff1673ffffffffffffffffffffffffffffffffffffffff16815260200190815260200160002060018261068191906114d5565b8154811061069257610691611509565b5b9060005260206000209060040201600160008573ffffffffffffffffffffffffffffffffffffffff1673ffffffffffffffffffffffffffffffffffffffff16815260200190815260200160002082815481106106f1576106f0611509565b5b906000526020600020906004020160008201816000019081610713919061154e565b5060018201816001019081610728919061154e565b506002820181600201908161073d919061154e565b5060038201548160030155905050808061075690611636565b9150506105e0565b50600160008373ffffffffffffffffffffffffffffffffffffffff1673ffffffffffffffffffffffffffffffffffffffff1681526020019081526020016000208054806107ae576107ad61167e565b5b6001900381819060005260206000209060040201600080820160006107d39190610a10565b6001820160006107e39190610a10565b6002820160006107f39190610a10565b6003820160009055505090555050565b60008054906101000a900473ffffffffffffffffffffffffffffffffffffffff1673ffffffffffffffffffffffffffffffffffffffff163373ffffffffffffffffffffffffffffffffffffffff1614610891576040517f08c379a000000000000000000000000000000000000000000000000000000000815260040161088890611168565b60405180910390fd5b600160008773ffffffffffffffffffffffffffffffffffffffff1673ffffffffffffffffffffffffffffffffffffffff168152602001908152602001600020805490508510610915576040517f08c379a000000000000000000000000000000000000000000000000000000000815260040161090c90611452565b60405180910390fd5b604051806080016040528085815260200184815260200183815260200182815250600160008873ffffffffffffffffffffffffffffffffffffffff1673ffffffffffffffffffffffffffffffffffffffff168152602001908152602001600020868154811061098757610986611509565b5b906000526020600020906004020160008201518160000190816109aa9190611334565b5060208201518160010190816109c09190611334565b5060408201518160020190816109d69190611334565b5060608201518160030155905050505050505050565b60008054906101000a900473ffffffffffffffffffffffffffffffffffffffff1681565b508054610a1c906110b4565b6000825580601f10610a2e5750610a4d565b601f016020900490600052602060002090810190610a4c9190610a50565b5b50565b5b80821115610a69576000816000905550600101610a51565b5090565b6000604051905090565b600080fd5b600080fd5b600073ffffffffffffffffffffffffffffffffffffffff82169050919050565b6000610aac82610a81565b9050919050565b610abc81610aa1565b8114610ac757600080fd5b50565b600081359050610ad981610ab3565b92915050565b600060208284031215610af557610af4610a77565b5b6000610b0384828501610aca565b91505092915050565b600081519050919050565b600082825260208201905092915050565b6000819050602082019050919050565b600081519050919050565b600082825260208201905092915050565b60005b83811015610b72578082015181840152602081019050610b57565b60008484015250505050565b6000601f19601f8301169050919050565b6000610b9a82610b38565b610ba48185610b43565b9350610bb4818560208601610b54565b610bbd81610b7e565b840191505092915050565b6000819050919050565b610bdb81610bc8565b82525050565b60006080830160008301518482036000860152610bfe8282610b8f565b91505060208301518482036020860152610c188282610b8f565b91505060408301518482036040860152610c328282610b8f565b9150506060830151610c476060860182610bd2565b508091505092915050565b6000610c5e8383610be1565b905092915050565b6000602082019050919050565b6000610c7e82610b0c565b610c888185610b17565b935083602082028501610c9a85610b28565b8060005b85811015610cd65784840389528151610cb78582610c52565b9450610cc283610c66565b925060208a01995050600181019050610c9e565b50829750879550505050505092915050565b60006020820190508181036000830152610d028184610c73565b905092915050565b600080fd5b600080fd5b7f4e487b7100000000000000000000000000000000000000000000000000000000600052604160045260246000fd5b610d4c82610b7e565b810181811067ffffffffffffffff82111715610d6b57610d6a610d14565b5b80604052505050565b6000610d7e610a6d565b9050610d8a8282610d43565b919050565b600067ffffffffffffffff821115610daa57610da9610d14565b5b610db382610b7e565b9050602081019050919050565b82818337600083830152505050565b6000610de2610ddd84610d8f565b610d74565b905082815260208101848484011115610dfe57610dfd610d0f565b5b610e09848285610dc0565b509392505050565b600082601f830112610e2657610e25610d0a565b5b8135610e36848260208601610dcf565b91505092915050565b610e4881610bc8565b8114610e5357600080fd5b50565b600081359050610e6581610e3f565b92915050565b600080600080600060a08688031215610e8757610e86610a77565b5b6000610e9588828901610aca565b955050602086013567ffffffffffffffff811115610eb657610eb5610a7c565b5b610ec288828901610e11565b945050604086013567ffffffffffffffff811115610ee357610ee2610a7c565b5b610eef88828901610e11565b935050606086013567ffffffffffffffff811115610f1057610f0f610a7c565b5b610f1c88828901610e11565b9250506080610f2d88828901610e56565b9150509295509295909350565b60008060408385031215610f5157610f50610a77565b5b6000610f5f85828601610aca565b9250506020610f7085828601610e56565b9150509250929050565b60008060008060008060c08789031215610f9757610f96610a77565b5b6000610fa589828a01610aca565b9650506020610fb689828a01610e56565b955050604087013567ffffffffffffffff811115610fd757610fd6610a7c565b5b610fe389828a01610e11565b945050606087013567ffffffffffffffff81111561100457611003610a7c565b5b61101089828a01610e11565b935050608087013567ffffffffffffffff81111561103157611030610a7c565b5b61103d89828a01610e11565b92505060a061104e89828a01610e56565b9150509295509295509295565b61106481610aa1565b82525050565b600060208201905061107f600083018461105b565b92915050565b7f4e487b7100000000000000000000000000000000000000000000000000000000600052602260045260246000fd5b600060028204905060018216806110cc57607f821691505b6020821081036110df576110de611085565b5b50919050565b600082825260208201905092915050565b7f4f6e6c792061646d696e2063616e20706572666f726d2074686973206163746960008201527f6f6e000000000000000000000000000000000000000000000000000000000000602082015250565b60006111526022836110e5565b915061115d826110f6565b604082019050919050565b6000602082019050818103600083015261118181611145565b9050919050565b60008190508160005260206000209050919050565b60006020601f8301049050919050565b600082821b905092915050565b6000600883026111ea7fffffffffffffffffffffffffffffffffffffffffffffffffffffffffffffffff826111ad565b6111f486836111ad565b95508019841693508086168417925050509392505050565b6000819050919050565b600061123161122c61122784610bc8565b61120c565b610bc8565b9050919050565b6000819050919050565b61124b83611216565b61125f61125782611238565b8484546111ba565b825550505050565b600090565b611274611267565b61127f818484611242565b505050565b5b818110156112a35761129860008261126c565b600181019050611285565b5050565b601f8211156112e8576112b981611188565b6112c28461119d565b810160208510156112d1578190505b6112e56112dd8561119d565b830182611284565b50505b505050565b600082821c905092915050565b600061130b600019846008026112ed565b1980831691505092915050565b600061132483836112fa565b9150826002028217905092915050565b61133d82610b38565b67ffffffffffffffff81111561135657611355610d14565b5b61136082546110b4565b61136b8282856112a7565b600060209050601f83116001811461139e576000841561138c578287015190505b6113968582611318565b8655506113fe565b601f1984166113ac86611188565b60005b828110156113d4578489015182556001820191506020850194506020810190506113af565b868310156113f157848901516113ed601f8916826112fa565b8355505b6001600288020188555050505b505050505050565b7f496e64657820696e76616c696465000000000000000000000000000000000000600082015250565b600061143c600e836110e5565b915061144782611406565b602082019050919050565b6000602082019050818103600083015261146b8161142f565b9050919050565b7f4e487b7100000000000000000000000000000000000000000000000000000000600052601160045260246000fd5b60006114ac82610bc8565b91506114b783610bc8565b92508282039050818111156114cf576114ce611472565b5b92915050565b60006114e082610bc8565b91506114eb83610bc8565b925082820190508082111561150357611502611472565b5b92915050565b7f4e487b7100000000000000000000000000000000000000000000000000000000600052603260045260246000fd5b600081549050611547816110b4565b9050919050565b81810361155c575050611634565b61156582611538565b67ffffffffffffffff81111561157e5761157d610d14565b5b61158882546110b4565b6115938282856112a7565b6000601f8311600181146115c257600084156115b0578287015490505b6115ba8582611318565b86555061162d565b601f1984166115d087611188565b96506115db86611188565b60005b82811015611603578489015482556001820191506001850194506020810190506115de565b86831015611620578489015461161c601f8916826112fa565b8355505b6001600288020188555050505b5050505050505b565b600061164182610bc8565b91507fffffffffffffffffffffffffffffffffffffffffffffffffffffffffffffffff820361167357611672611472565b5b600182019050919050565b7f4e487b7100000000000000000000000000000000000000000000000000000000600052603160045260246000fdfea26469706673582212207c957567f45f43d1a6a9606f6c5efc3c1e22be5200de1cea76cb809518d1a41964736f6c63430008140033",
  "linkReferences": {},
  "deployedLinkReferences": {}
}